{
  "_format": "hh-sol-artifact-1",
  "contractName": "WavePortal",
  "sourceName": "contracts/WavePortal.sol",
  "abi": [
    {
      "inputs": [],
      "stateMutability": "payable",
      "type": "constructor"
    },
    {
      "anonymous": false,
      "inputs": [
        {
          "indexed": true,
          "internalType": "address",
          "name": "from",
          "type": "address"
        },
        {
          "indexed": false,
          "internalType": "uint256",
          "name": "timestamp",
          "type": "uint256"
        },
        {
          "indexed": false,
          "internalType": "string",
          "name": "message",
          "type": "string"
        }
      ],
      "name": "NewWave",
      "type": "event"
    },
    {
      "inputs": [],
      "name": "getAllWaves",
      "outputs": [
        {
          "components": [
            {
              "internalType": "address",
              "name": "waver",
              "type": "address"
            },
            {
              "internalType": "string",
              "name": "message",
              "type": "string"
            },
            {
              "internalType": "uint256",
              "name": "timestamp",
              "type": "uint256"
            }
          ],
          "internalType": "struct WavePortal.Wave[]",
          "name": "",
          "type": "tuple[]"
        }
      ],
      "stateMutability": "view",
      "type": "function"
    },
    {
      "inputs": [],
      "name": "getTotalWaves",
      "outputs": [
        {
          "internalType": "uint256",
          "name": "",
          "type": "uint256"
        }
      ],
      "stateMutability": "view",
      "type": "function"
    },
    {
      "inputs": [
        {
          "internalType": "address",
          "name": "",
          "type": "address"
        }
      ],
      "name": "lastWonAt",
      "outputs": [
        {
          "internalType": "uint256",
          "name": "",
          "type": "uint256"
        }
      ],
      "stateMutability": "view",
      "type": "function"
    },
    {
      "inputs": [
        {
          "internalType": "string",
          "name": "_message",
          "type": "string"
        }
      ],
      "name": "wave",
      "outputs": [],
      "stateMutability": "nonpayable",
      "type": "function"
    }
  ],
  "bytecode": "0x60806040526200004f6040518060400160405280601981526020017f4920414d20534d41525420434f4e54524143542e20504f472e000000000000008152506200005560201b620006551760201c565b620001e9565b620000f5816040516024016200006c919062000162565b6040516020818303038152906040527f41304fac000000000000000000000000000000000000000000000000000000007bffffffffffffffffffffffffffffffffffffffffffffffffffffffff19166020820180517bffffffffffffffffffffffffffffffffffffffffffffffffffffffff8381831617835250505050620000f860201b60201c565b50565b60008151905060006a636f6e736f6c652e6c6f679050602083016000808483855afa5050505050565b60006200012e8262000186565b6200013a818562000191565b93506200014c818560208601620001a2565b6200015781620001d8565b840191505092915050565b600060208201905081810360008301526200017e818462000121565b905092915050565b600081519050919050565b600082825260208201905092915050565b60005b83811015620001c2578082015181840152602081019050620001a5565b83811115620001d2576000848401525b50505050565b6000601f19601f8301169050919050565b6110f780620001f96000396000f3fe608060405234801561001057600080fd5b506004361061004c5760003560e01c8063449d46c01461005157806347863a6a1461006d5780639a2cdc081461009d578063bd43a908146100bb575b600080fd5b61006b60048036038101906100669190610998565b6100d9565b005b6100876004803603810190610082919061096f565b6104a1565b6040516100949190610cc2565b60405180910390f35b6100a56104b9565b6040516100b29190610cc2565b60405180910390f35b6100c3610504565b6040516100d09190610bde565b60405180910390f35b60016000808282546100eb9190610dd4565b925050819055506101316040518060400160405280600d81526020017f2573206861732077617665642100000000000000000000000000000000000000815250336106ee565b600260405180606001604052803373ffffffffffffffffffffffffffffffffffffffff16815260200183815260200142815250908060018154018082558091505060019003906000526020600020906003020160009091909190915060008201518160000160006101000a81548173ffffffffffffffffffffffffffffffffffffffff021916908373ffffffffffffffffffffffffffffffffffffffff16021790555060208201518160010190805190602001906101f092919061084f565b506040820151816002015550506000606460015442446102109190610dd4565b61021a9190610dd4565b6102249190610f0b565b90506102656040518060400160405280601681526020017f52616e646f6d20232067656e6572617465643a202573000000000000000000008152508261078a565b806001819055506005811080156102c8575042620d2f00600360003373ffffffffffffffffffffffffffffffffffffffff1673ffffffffffffffffffffffffffffffffffffffff168152602001908152602001600020546102c69190610dd4565b105b1561049d5761030c6040518060400160405280600781526020017f257320776f6e2100000000000000000000000000000000000000000000000000815250336106ee565b42600360003373ffffffffffffffffffffffffffffffffffffffff1673ffffffffffffffffffffffffffffffffffffffff168152602001908152602001600020819055503373ffffffffffffffffffffffffffffffffffffffff167f5f7e16dc676677766a70e9c5628aa6c54ddb8b6e5188e2ae1e1f17f1ffbea7164284604051610398929190610cdd565b60405180910390a26000655af3107a40009050478111156103ee576040517f08c379a00000000000000000000000000000000000000000000000000000000081526004016103e590610c82565b60405180910390fd5b60003373ffffffffffffffffffffffffffffffffffffffff168260405161041490610bc9565b60006040518083038185875af1925050503d8060008114610451576040519150601f19603f3d011682016040523d82523d6000602084013e610456565b606091505b505090508061049a576040517f08c379a000000000000000000000000000000000000000000000000000000000815260040161049190610ca2565b60405180910390fd5b50505b5050565b60036020528060005260406000206000915090505481565b60006104fc6040518060400160405280601781526020017f5765206861766520256420746f74616c2077617665732100000000000000000081525060005461078a565b600054905090565b60606002805480602002602001604051908101604052809291908181526020016000905b8282101561064c57838290600052602060002090600302016040518060600160405290816000820160009054906101000a900473ffffffffffffffffffffffffffffffffffffffff1673ffffffffffffffffffffffffffffffffffffffff1673ffffffffffffffffffffffffffffffffffffffff1681526020016001820180546105b190610ea8565b80601f01602080910402602001604051908101604052809291908181526020018280546105dd90610ea8565b801561062a5780601f106105ff5761010080835404028352916020019161062a565b820191906000526020600020905b81548152906001019060200180831161060d57829003601f168201915b5050505050815260200160028201548152505081526020019060010190610528565b50505050905090565b6106eb816040516024016106699190610c00565b6040516020818303038152906040527f41304fac000000000000000000000000000000000000000000000000000000007bffffffffffffffffffffffffffffffffffffffffffffffffffffffff19166020820180517bffffffffffffffffffffffffffffffffffffffffffffffffffffffff8381831617835250505050610826565b50565b6107868282604051602401610704929190610c22565b6040516020818303038152906040527f319af333000000000000000000000000000000000000000000000000000000007bffffffffffffffffffffffffffffffffffffffffffffffffffffffff19166020820180517bffffffffffffffffffffffffffffffffffffffffffffffffffffffff8381831617835250505050610826565b5050565b61082282826040516024016107a0929190610c52565b6040516020818303038152906040527f9710a9d0000000000000000000000000000000000000000000000000000000007bffffffffffffffffffffffffffffffffffffffffffffffffffffffff19166020820180517bffffffffffffffffffffffffffffffffffffffffffffffffffffffff8381831617835250505050610826565b5050565b60008151905060006a636f6e736f6c652e6c6f679050602083016000808483855afa5050505050565b82805461085b90610ea8565b90600052602060002090601f01602090048101928261087d57600085556108c4565b82601f1061089657805160ff19168380011785556108c4565b828001600101855582156108c4579182015b828111156108c35782518255916020019190600101906108a8565b5b5090506108d191906108d5565b5090565b5b808211156108ee5760008160009055506001016108d6565b5090565b600061090561090084610d32565b610d0d565b90508281526020810184848401111561091d57600080fd5b610928848285610e66565b509392505050565b60008135905061093f816110aa565b92915050565b600082601f83011261095657600080fd5b81356109668482602086016108f2565b91505092915050565b60006020828403121561098157600080fd5b600061098f84828501610930565b91505092915050565b6000602082840312156109aa57600080fd5b600082013567ffffffffffffffff8111156109c457600080fd5b6109d084828501610945565b91505092915050565b60006109e58383610b5b565b905092915050565b6109f681610e2a565b82525050565b610a0581610e2a565b82525050565b6000610a1682610d73565b610a208185610d96565b935083602082028501610a3285610d63565b8060005b85811015610a6e5784840389528151610a4f85826109d9565b9450610a5a83610d89565b925060208a01995050600181019050610a36565b50829750879550505050505092915050565b6000610a8b82610d7e565b610a958185610db2565b9350610aa5818560208601610e75565b610aae81610ff8565b840191505092915050565b6000610ac482610d7e565b610ace8185610dc3565b9350610ade818560208601610e75565b610ae781610ff8565b840191505092915050565b6000610aff603483610dc3565b9150610b0a82611009565b604082019050919050565b6000610b22602783610dc3565b9150610b2d82611058565b604082019050919050565b6000610b45600083610da7565b9150610b50826110a7565b600082019050919050565b6000606083016000830151610b7360008601826109ed565b5060208301518482036020860152610b8b8282610a80565b9150506040830151610ba06040860182610bab565b508091505092915050565b610bb481610e5c565b82525050565b610bc381610e5c565b82525050565b6000610bd482610b38565b9150819050919050565b60006020820190508181036000830152610bf88184610a0b565b905092915050565b60006020820190508181036000830152610c1a8184610ab9565b905092915050565b60006040820190508181036000830152610c3c8185610ab9565b9050610c4b60208301846109fc565b9392505050565b60006040820190508181036000830152610c6c8185610ab9565b9050610c7b6020830184610bba565b9392505050565b60006020820190508181036000830152610c9b81610af2565b9050919050565b60006020820190508181036000830152610cbb81610b15565b9050919050565b6000602082019050610cd76000830184610bba565b92915050565b6000604082019050610cf26000830185610bba565b8181036020830152610d048184610ab9565b90509392505050565b6000610d17610d28565b9050610d238282610eda565b919050565b6000604051905090565b600067ffffffffffffffff821115610d4d57610d4c610fc9565b5b610d5682610ff8565b9050602081019050919050565b6000819050602082019050919050565b600081519050919050565b600081519050919050565b6000602082019050919050565b600082825260208201905092915050565b600081905092915050565b600082825260208201905092915050565b600082825260208201905092915050565b6000610ddf82610e5c565b9150610dea83610e5c565b9250827fffffffffffffffffffffffffffffffffffffffffffffffffffffffffffffffff03821115610e1f57610e1e610f3c565b5b828201905092915050565b6000610e3582610e3c565b9050919050565b600073ffffffffffffffffffffffffffffffffffffffff82169050919050565b6000819050919050565b82818337600083830152505050565b60005b83811015610e93578082015181840152602081019050610e78565b83811115610ea2576000848401525b50505050565b60006002820490506001821680610ec057607f821691505b60208210811415610ed457610ed3610f9a565b5b50919050565b610ee382610ff8565b810181811067ffffffffffffffff82111715610f0257610f01610fc9565b5b80604052505050565b6000610f1682610e5c565b9150610f2183610e5c565b925082610f3157610f30610f6b565b5b828206905092915050565b7f4e487b7100000000000000000000000000000000000000000000000000000000600052601160045260246000fd5b7f4e487b7100000000000000000000000000000000000000000000000000000000600052601260045260246000fd5b7f4e487b7100000000000000000000000000000000000000000000000000000000600052602260045260246000fd5b7f4e487b7100000000000000000000000000000000000000000000000000000000600052604160045260246000fd5b6000601f19601f8301169050919050565b7f547279696e6720746f207769746864726177206d6f7265206d6f6e657920746860008201527f616e2074686520636f6e7472616374206861732e000000000000000000000000602082015250565b7f4661696c656420746f207769746864726177206d6f6e65792066726f6d20636f60008201527f6e74726163742e00000000000000000000000000000000000000000000000000602082015250565b50565b6110b381610e2a565b81146110be57600080fd5b5056fea2646970667358221220ce1cf98fe58daa418dec63ff1b2e5f7bd7576d6395348d110173a37490e53cfe64736f6c63430008040033",
  "linkReferences": {},
  "deployedLinkReferences": {}
}